:020000022000DC
:10600000C0980020C5B102005FA70400B1B1020032
:10601000B1B10200B1B10200B1B102000000000054
:10602000000000000000000000000000D5B20200E7
:10603000B1B102000000000045B20200B1B102009F
:10604000E5B4020005D90300E5B40200E5B402009E
:10605000E5B40200E5B40200E5B40200E5B40200D4
:10606000E5B40200E5B40200E5B40200E5B40200C4
:10607000E5B40200E5B40200E5B40200E5B40200B4
:10608000E5B40200E5B40200E5B40200E5B40200A4
:10609000E5B40200E5B40200E5B40200E5B4020094
:1060A000E5B40200E5B40200E5B40200E5B4020084
:1060B000E5B40200E5B40200E5B40200E5B4020074
:1060C000E5B40200E5B40200E5B40200E5B4020064
:1060D000E5B40200E5B40200E5B40200E5B4020054
:1060E000E5B40200E5B40200E5B40200E5B4020044
:1060F000E5B40200E5B40200E5B40200E5B4020034
:1061000053B94AB9002908BF00281CBF4FF0FF311E
:106110004FF0FF3000F00CB8ADF1080C6DE904CE83
:1061200000F022F8DDF804E0DDE9022304B0704756
:10613000704700BF10F8012B11F8013B012A28BF5E
:106140009A42F7D0D01A7047034611F8012B03F892
:10615000012B002AF9D17047034613F8012B002ABE
:10616000FBD1181A013870472DE9F04786468C4656
:106170000846089E154674461946002B40F0C2801A
:106180008542B2FA82F245D94AB1C2F1200300FA3F
:1061900002FC2EFA03F3954043EA0C0C94404FEABC
:1061A000154EA8B2BCFBFEF8230C0EFB18CC08FB66
:1061B00000F943EA0C43994528D9EB1808F1FF3759
:1061C00004D2994502D9A8F102072B44A3EB090395
:1061D000A4B2B3FBFEFC0EFB1C330CFB00F044EA44
:1061E0000344A04214D92C190CF1FF3304D2A0426D
:1061F00002D9ACF102032C44241A43EA07401EB131
:10620000D440002334607360BDE8F0874746DDE783
:106210006346F1E792BB431B01214FEA154EAFB233
:10622000B3FBFEFC200C0EFB1C330CFB07F840EA12
:106230000343984562D9EB180CF1FF3004D298451E
:1062400002D9ACF102002B44A3EB0803A4B2B3FBC8
:10625000FEFC0EFB1C330CFB07F744EA0344A74289
:106260004ED92C190CF1FF3304D2A74202D9ACF15C
:1062700002032C44E41B43EA0040C0E7C2F12003C0
:1062800020FA03F1954090402EFA03F303434FEABE
:10629000154EAFB2B1FBFEFC0EFB1C10190C0CFB33
:1062A00007F841EA0041884504FA02F422D9691846
:1062B0000CF1FF3004D2884502D9ACF10200294428
:1062C000A1EB08019BB2B1FBFEFC0EFB1C110CFB09
:1062D00007F743EA01439F420ED9EB180CF1FF3157
:1062E00004D29F4202D9ACF102012B44DB1B41EAEC
:1062F000004192E76046E3E76146F7E76046A3E7BF
:106300006346B7E7834206D916B9002108467BE702
:10631000C6E900E0F9E7B3FA83F78FB9834201D306
:10632000724508D8BEEB020460EB030301209C46D3
:106330001EB9002168E73846FAE7C6E9004CF8E7DD
:10634000C7F1200CBB4022FA0CF41C432EFA0CF1CE
:1063500020FA0CF3B84001434FEA14490EFA07F54E
:10636000B3FBF9F81FFA84FE09FB18300B0C08FB8D
:106370000EFA43EA00439A4502FA07F240D9E318BD
:1063800008F1FF3004D29A4502D9A8F10200234453
:10639000A3EB0A0389B2B3FBF9F809FB183308FB36
:1063A0000EFE41EA03418E452CD9611808F1FF33F6
:1063B00004D28E4502D9A8F10203214443EA0040E9
:1063C000A0FB0298A1EB0E014145CE46434602D305
:1063D00006D14D4504D2B9EB020E68EB0403013837
:1063E000002EA6D0B5EB0E0261EB030101FA0CFC06
:1063F00022FA07F34CEA0303F940C6E9003198E7B3
:106400004046C5E74346D9E7F7B5002101AA40F663
:10641000034006F061F90446002869D10198C36879
:106420001B788BB9BFF35B8FB94B1A68BFF35B8FD7
:1064300002F00902BFF35B8F53E8001F43E800241A
:10644000002CF9D1BFF35B8F05F0B0FA01AA00214F
:1064500041F2030006F040F90446002848D1019AB1
:10646000AC4DD168D1F80100D1F8051005F17803E1
:1064700003C3104605F09AFA214601AA41F2010031
:1064800006F02AF9044698BB0198C3685A7885F843
:1064900070205A88A5F872201A7985F87120B3F80F
:1064A0000720A5F87420B3F80530A5F8763005F07C
:1064B0007DFA214601AA41F2020006F00DF90446D8
:1064C000B0B9019FFA6805F18006531C4132186883
:1064D0005968344603C4083393422646F7D13846F8
:1064E00005F064FA95F87C305B0604D46FF0120472
:1064F000204603B0F0BD01AA002142F2030006F0DD
:10650000EBF804460028F3D1019B834EDA68D2F8F9
:106510000100D2F8051003C6184605F047FA2146D7
:1065200001AA42F2020006F0D7F804460028DFD1A3
:10653000019CE368B3F8012091B249B1D97839B12F
:10654000A5F80421DA78114606F1280029F030FC7C
:10655000204605F02BFA95F87C601F2316F02006E4
:10656000A5F8203118D1022140F66D4005F01EFF3C
:106570000446002800F0C48002210C3024F09FF96A
:106580000123037046702146324640F66D4006F006
:10659000A3F804460028ABD195F89C301F0712D50C
:1065A00001AA002142F21C0006F096F804460028D9
:1065B0009ED10198C368D3F80120D3F80530C5E90E
:1065C000382305F0F3F995F8D8309E0624D50DF15F
:1065D0000201684624F0F3FD0446002888D1042116
:1065E00042F2240005F0E2FE0646002800F0888012
:1065F00004210C3024F063F9BDF800300380BDF8AD
:10660000023043802246314642F2240006F064F80C
:10661000044600287FF46CAF95F8D8305C0610D59E
:1066200001AA002142F22A0006F056F8044600288A
:106630007FF45EAF0198C3685B7885F8223105F07E
:10664000B5F9082142F2010005F0B0FE0446002829
:1066500056D008210C3024F032F995F8D81011F0FA
:10666000400F024640F2022308BF032388074CBFB5
:1066700043F02C0043F00C0095F8D9308F0648BF4A
:1066800040F0400013F0090F18BF40F40060CE073F
:1066900048BF40F01000002124F083FB2146002277
:1066A00042F2010006F018F8044600287FF420AFFB
:1066B00095F87C30B5F80411980624D4C9B901AA1C
:1066C00041F2050006F008F8044600287FF410AFF8
:1066D000B5F80431019C4BB9E368B3F80120A5F883
:1066E00004219A880D48114629F062FB204605F0E6
:1066F0005DF9082140F6014005F058FE044678B9DE
:106700006FF06804F4E60029F3D16FF00404EFE6BB
:10671000D400002000000020D80000200801002044
:1067200008210C3024F0CBF895F8D830D907024670
:1067300053BF4FF000512CA1D1E90001284824F0AB
:1067400030FB2146002240F6014005F0C5FF04461B
:1067500000287FF4CDAE014601AA4FF6014005F0B6
:10676000BBFF044620BB019805F020F9214601AA91
:106770004FF6024005F0B0FF0446C8B90198C3685F
:10678000B3F80130A5F8C13005F010F995F8C13023
:106790005B070DD501AA21464FF6034005F09CFF8B
:1067A00030B90198C3685B7885F8C03005F0FEF811
:1067B00024F0DCFE044600287FF49AAE08F076F858
:1067C000044600287FF494AEEB79002B3FF490AEA2
:1067D0000821044824F047FA05F0CEFE88E600BF01
:1067E00010880002D4000020908800020080002061
:1067F0002DE9F843D0E90738856903EB08042F3405
:10680000A5420F46164619D8DFF87080A3FB080191
:1068100017A3D3E90023FFF773FC0346601BA0FB1B
:10682000080123F07F4412A3D3E90023FFF768FC9B
:1068300020F07F403C603060BDE8F883DFF83C909A
:106840000BA3D3E90023A5FB0901FFF759FC20F0B6
:106850007F4409480A2106A3D3E90023E8FB090184
:10686000FFF74EFC20F07F403C603060BDE8F883CD
:106870008D49FD1A0700000000166BF100CA9A3B13
:106880009FED097B0E4B0F4A0F4983ED007B9FED77
:10689000087B82ED007B9FED087B0C4B002281ED95
:1068A000007B1A600EF0D0BAFFFFFFFFFF1F000051
:1068B00000000000000000001F00000000000000B9
:1068C00090010020E81E002088010020F0440020F4
:1068D000002800F05F812DE9F04FB54C94F86A2054
:1068E00012F001058DB040F0A68194F82500FF2339
:1068F00000F0030084F8263016F0DEFB94F86A00FE
:10690000420727D494F8292094F8353004EB82020A
:1069100004EB8303D66AD3F8388086B1A4483146A5
:1069200010F06CF833785B0605D506210BF01CFAE5
:10693000002800F082819E48414610F05FF83378CD
:1069400013F00E0F40F0B780236A93B10C200DB006
:10695000BDE8F08F2A4604F16B01C0F3C00016F0C9
:1069600023FDFF2884F82600CCD0284616F0BEFB75
:10697000C8E70DF03BFD8146002800F06C810DF06A
:1069800041FD8246002800F0638110F03FFB054680
:10699000002800F06281D0F894004FF6FF732B8638
:1069A00005F11C0B002800F04E8105F1840105F172
:1069B00088020BF0E5F9B5F882307E4A23F4EF63E4
:1069C00023F0070343F48C7343F00103A5F88230EE
:1069D0001346D2F80120C5F8AB21C5F8B12113F850
:1069E000012B9B88A5F8AF31A5F8B53195F8AA31F0
:1069F00002F0010262F3000362F3410385F8AA3159
:106A000095F8433003F03F0363F07F0385F843308C
:106A100095F89A3023F0070385F89A3095F84830B6
:106A200023F00F03002785F848304FF4C023C5F842
:106A300098312846C5E91577C5F89470A5F898707F
:106A400085F84570EF86C5F83A70EF65A5F89E7138
:106A5000A5F8947112F0C4FC85F86071C5F86491D2
:106A600010F0C0FD95F8A43160F3020385F8A4315D
:106A700010F0BEFD95F8A43160F3C50385F8A4318C
:106A800095F8903167F3410385F89031012128464C
:106A900011F008FA05F1E00012F07AFAC4E9189A48
:106AA000C4F820B0C5E905772F70ED6117F05EFDE1
:106AB000002840F0C48094F824300121C3F342033D
:106AC0000DF12B008DF82B300BF0F8FA0246002860
:106AD00062D098F8011030460FF04AFD3123364954
:106AE000A360364BB4F86870A0FB01010025C01804
:106AF00041F107012CA3D3E90023C4E90555257012
:106B00006560E560FFF7FCFA20610CF097FD00F18D
:106B100009083FB9357805F00F05A5F10105B5FA6B
:106B200085F56D0994F82400236965F3000010F0E1
:106B3000010584F824004BD0214A099200201060FE
:106B40000225204A204F04930BAE019305920321A6
:106B5000CDE90200069443460090089607972A461E
:106B60000B950CF06DFC31460DF002FDA0B91749F4
:106B700005914AF2D8330093CDE90300CDE9010035
:106B80000797089606944346012203210B950CF0C3
:106B90003BFC43E00FF03CBC236A002B3FF4D6AE35
:106BA0000FF0F2FBD2E600BF8D49FD1A070000008E
:106BB000284500202240050000CA9A3B8C49FD1A56
:106BC0001C450020ED6503009D370300D1600300E4
:106BD000274A2848049303F247130694029591210B
:106BE0001360A7FB000301FB0731234B0793234BE3
:106BF00005934FF6FF730992022703930BAE1AA376
:106C0000D3E900230B970896FFF77AFA4346CDE9BC
:106C100000503A46284603210CF012FC31460DF094
:106C2000A7FC0028B8D194F86A300120034384F807
:106C30006A3016F023FA002089E6122087E60FF06A
:106C4000A3FB032083E605F18C00C5F89400ACE6B5
:106C500048460DF0D1FB072079E650460DF0D8FBF1
:106C600048460DF0C9FBF6E78D49FD1A0700000004
:106C70001C450020002AE7849D370300ED650300D2
:106C800070B590F824308AB0C3F342030D46044631
:106C900001210DF1230016468DF823300BF00EFA7A
:106CA0007178024628460FF063FC1F491F4AA0FB7B
:106CB0000131981841F1070119A3D3E90023FFF727
:106CC0001FFA23699842054621D21B1A002201921D
:106CD000174A0293174BA21AA3FB02320221920910
:106CE00000230A4409AE099113490591CDE9033304
:106CF0000321D2B20696009318460CF001FC3146EF
:106D00000DF036FC38B9256100200AB070BDFBD902
:106D1000C21A0023DBE70C200AB070BDAFF300807D
:106D20008D49FD1A0700000000CA9A3B8C49FD1AE4
:106D300028450020898888889D37030000000000CE
:106D40002DE9F04F06468DB08A4601200221994672
:106D5000154619F0A9FB00220B90022101200BF02F
:106D60005FF83B494FF4DC7230460AF0E9FFC71C7C
:106D7000384B0093FFB201964B463A460121002062
:106D80000CF018FC10F0FD0F0ED0334A3349344894
:106D900040F68F0322F074FD002383F31188BFF3C4
:106DA0006F8F0323184602DF2E4CA5FB044526A354
:106DB000D3E9002320462946FFF7A2F90896069654
:106DC00033690493284B20F07F48A8FB0331E01A75
:106DD000264B07934FF00702254B059302FB081142
:106DE0004FF6FE7365EB010103934FF47A720023B3
:106DF000FFF786F94FF0000BCDE90180CDF800A038
:106E00004B463A46012158460CF0FEFA10F0FD0FB1
:106E10000DD0114A1149124840F6A40322F030FD6A
:106E20008BF31188BFF36F8F0323184602DF0B9B90
:106E300013B90DB0BDE8F08F0122022110460DB04C
:106E4000BDE8F04F0AF0ECBF8D49FD1A07000000C5
:106E5000F01E0020AD6F0300782205003C230500E2
:106E6000581D050000CA9A3B8D49FD1A4D6F03005D
:106E700065C50300000000002DE9F0418468228E02
:106E80004FF6FF739A428CB045D00546204612F06B
:106E900045FD2B7D012B00F02281022B00F0158196
:106EA000002B00F0F48094F86061002E40F0108117
:106EB0002B8A678F94F94320CDE90A6673B3002AC1
:106EC000C0F25A810023A4F89A31AA7C238FFD18BE
:106ED00002F003030135012BADB23BD0B4F89E3173
:106EE000002B00F005819D4280F059815B1B9BB215
:106EF0000022062BA4F89E31628740F2F68094F9B6
:106F000043309342C0F25081002326E09DF82710C1
:106F1000204610F08BFC0CB0BDE8F081002AB8BF11
:106F200084F88561238FAA7CFD1802F003030135E4
:106F3000012BADB20ED0B4F89A31002BCED0AB42BB
:106F400040F23C815B1BA4F89A31B4F89E31002BCF
:106F5000C9D102E00023A4F89E3194F8482063F3DD
:106F6000820284F8482029460DF12702204612F0BB
:106F700073FA7430CAD0B4F898312BB1AB4240F2F6
:106F8000EC805B1BA4F89831B4F894312BB1AB4280
:106F900040F2DA805B1BA4F89431658F16B9AF42DA
:106FA00000F0C9800135ADB294F8DD3013F001076F
:106FB00031D1DDE90A130A46002B40F0CC800029CC
:106FC00000F0BB801F461846228EE4690694CDE986
:106FD000035603329A4D0290CDE90017D2B2012137
:106FE000002005950CF08CFA10F0FD0F93D00DF0F9
:106FF000E9FA84428FD0934A934994484FF4AE63A0
:1070000022F03EFC002383F31188BFF36F8F03232C
:10701000184602DF7FE794F943206FF30003002A4C
:1070200084F8DD307FDB94F88200C0F3C00100F00B
:10703000070017F0B3F8B4F87A20B4F878301344A6
:10704000628D03F23F1313440344814A81480721B0
:10705000E3FB0021104678A3D3E90023FFF750F8A3
:10706000DDE90A1320F07F4220692261904235BF9A
:10707000171A801A002000270A46002BA4D157EACD
:10708000010CA1D1002858D019461F469CE794F85E
:107090009A3003F01803182B7FF405AFA18EB4F8D3
:1070A00096218B1D9A42C4BF931F5B1AB4F89211AC
:1070B000CCBF9BB21346994200F09C80A4F8923159
:1070C000A4F89431A4F89821EDE63D2684F8606197
:1070D000314620460CB0BDE8F04110F0A7BB0023BC
:1070E000A4F89831A4F89431DDE60126334634E75C
:1070F000628E052A97BF013240F2E2434FF4FA73E1
:1071000092B203FB02F2B4F89C3142F2107101FB1F
:107110000323013BB3FBF2F39BB2A4F89E31002B97
:107120007FF4E1AE19E794F88300012100F0070035
:1071300017F036F87FE7354636E7002D43D00027B5
:10714000114638463B463FE70023A4F894312046D9
:1071500012F024FA21E7384636E70DF09BF9014694
:10716000A0B30023A4F89831238EC3801B2303719E
:1071700000680DF05FF907E794F885316BB3013BC8
:1071800084F8853104F1E008404611F043FFB8B3BC
:10719000404611F03FFFB8B30023638792E6082111
:1071A000204610F043FBB6E6A7B9D4F888315A0858
:1071B00013F0010336D1C4F88821A5E63E2120460C
:1071C00010F034FBA7E6002EB9D1A4E60123A4F801
:1071D0009831D9E613460126BFE60AAA0BA928462C
:1071E000FFF706FBDDE90A231343CBD0237884F8AD
:1071F0008531C7E7B4F8981100297FF454AE5FE7F2
:10720000FF2010F0CFFAC3E70246D4E921010AF0CB
:10721000CFFD0028C0D194F848301B0744BFA38E8F
:1072200063874FE642F000421E46C4F888213B4681
:1072300093E600BFAFF300808D49FD1A0700000000
:10724000096F030078220500B8230500581D0500CA
:107250008C49FD1A00CA9A3B2DE9F04F87B0CDE961
:107260000423BDF8442003780292BDF84820BDF8FD
:1072700040A0BDF84C90878F019104460392002BEB
:1072800000F0D480013FBFB2A368D4F81CB1A7EBD3
:10729000090292B2002B00920ADAE168626823F0D8
:1072A000004391422CBF8B449344A360ABEB030B90
:1072B00094F88200C0F3C00100F0070016F06EFFE2
:1072C000658E052D40F2AA80009B15FB03F5ADB23B
:1072D00040F2E248BAF1050F40F29480B4F87A2007
:1072E000B4F87830134403F2D51303447A4A7B4848
:1072F0000721E3FB00214FF09613A362962310466B
:10730000A38573A3D3E90023FEF7FAFE564620F0C7
:107310007F4040F2E24308FB05F103FB06F6B1FBB8
:10732000F6F81FFA88F5206106FB05F08142A846B1
:107330005AD2401A694966A3D3E90023A0FB010190
:10734000FEF7DEFE20F07F408344E38EB4F8242174
:107350001344994494F84330A9EB0709C844DB0966
:10736000A4F8368069D15E4A5E495F4840F66713EB
:1073700022F086FA002585F31188BFF36F8F03236F
:10738000184602DF3746029BA386039BA4F89C3174
:1073900031462046A4F832A012F09AF8534BA18E41
:1073A0003344881DB3FBF6F39AB29042A4F89621B9
:1073B00004D2C1F57F41FA310A4492B2019BA4F88C
:1073C000922113B10023A4F89E315B463A46294628
:1073D0002046FFF7B5FC94F8903143F0010384F8A0
:1073E000903107B0BDE8F08F091A3C4838A3D3E9C3
:1073F0000023A1FB0001FEF783FE20F07F40ABEBF2
:10740000000BA2E74FF096130AF10106A362962340
:10741000A385B6B20A204FF4FA737CE7009B0135CE
:1074200015FB03F5ADB24FF4FA7853E7C38E1F4452
:10743000B0F824311F44BFB226E7E26C0099636DB7
:1074400002FB1133636517F0E1F8074694F88401F5
:10745000C0F3420017F0DCF8074406FB07F7244BA3
:1074600007F5742707F23F27A3FB0737BF0C636DAF
:10747000E76405FB07F072080344963A934228BF7D
:107480001346C4E91423049B144D40F2E24808FB60
:1074900003F3E3650023A0FB0501C4F88C310CA3C2
:1074A000D3E90023FEF72CFE124B059AABEB000B41
:1074B000A3FB0230800A08FB00F0A0FB050104A337
:1074C000D3E90023FEF71CFEF71B20F07F455AE7A7
:1074D0008D49FD1A070000008C49FD1A00CA9A3B2D
:1074E00078220500301E0500581D05007FC3C90124
:1074F00083DE1B435917B7D12DE9F04F04460B68C3
:10750000077F1668D3F800A0638CD0F81E0095B0F2
:1075100015464A7CADF84C30FF2AC7F380138846E5
:107520000D9212908DF83F3076D199461A4612ABE3
:1075300093E803000DF1400B1090ADF84410F809EA
:107540000AF1710127680A915B460C900B9710F0C5
:1075500055F80A99002847D196F8AA310C9A0A9052
:1075600069F3410362F3000386F8AA311098BBF86F
:107570000430C6F8B101A6F8B531DAF87130C6F8B2
:10758000AB318B88A6F8AF31E38D94F83010A97237
:107590002B81D4F82A306B60D4F83A30C5F8223009
:1075A00005F1220094F83E30037105210AF086FDB2
:1075B00095F8273000F03F0060F3050385F8273089
:1075C00094F83F30C3F3040185F82810A18EE982B6
:1075D000012803F01F0389B206D91B3303F01F03F0
:1075E0000B2B01D80A9A59BB0022CAF8142095F82F
:1075F0002C300B9862F3000385F82C30E5680126E7
:10760000214626710CF00AFF28682E7129460CF0DD
:1076100011FF15B0BDE8F08F0DF1400B10460DF1D4
:107620003F015A4615F0ACFA9DF83F90277F09F1CB
:1076300002095FFA89F98DF83F9009F001027EE7AF
:10764000D8F800305A60E38E2B83EB8A40F2E2498F
:1076500009FB03F71146638E0A93304611F04CFF85
:1076600094F83F3096F884215B0963F3430286F86F
:10767000842116F0CBFF0C9096F88401C0F34200F1
:1076800016F0C6FF0C9BC04A034407FB03F303F547
:10769000742303F23F23A2FB03239B0C2B637B0881
:1076A000963B6B6394F8313009FB03F36B64238FD3
:1076B000A6F89C313946304611F00AFFB34BB44A64
:1076C000C6F8A0213B44B3FBF7F39AB2A6F8962183
:1076D000298B881D824204DDC1F57F41FA310A44BD
:1076E00092B2A6F892216B68C6F88831234613F847
:1076F0001C2FC2F34019DA0700F103814FF48073A5
:10770000A3839AF8260015F063FF04F12B030028E9
:1077100000F0F380626AC4F82B20228D9A800D9BC2
:10772000FF2B00F02681BDF84C301298A4F82930C8
:10773000C4F82500BBF80430A4F8233010989DF855
:107740003F30C4F81F00A377EB8A63862B8BA38698
:10775000B6F89C31E38696F88431C3F3420384F88B
:10776000383030460FF05EFCA882E08021460B984E
:10777000D8F804400CF052FEAB8AE3801C23D4F806
:1077800000B02371B9F1000F40F0D28084F81C9052
:10779000214658460CF04EFE95F86700B5F85C900F
:1077A000B5F85E40012100F0070016F0F9FC4C44EA
:1077B00004F2D514DFF8E4910444834675484FF091
:1077C00096130721C5E90333E4FB090131230024A3
:1077D000B36074606AA3D3E90023F460FEF790FC01
:1077E00020F07F4030612D6B0A9A7D1BD8F80C7019
:1077F00040F2E24303FB02770221224601200AF015
:107800000FFB50460FF0B6F807F2B3470246A7EB5E
:107810000B07A7FB0901174659A3D3E90023FEF77D
:107820006FFCCDF804A0D8F808305B49009120F037
:107830007F49BA1C3A3BD2B24B44012120460BF09F
:10784000B9FE012800F081809AF82430DB0767D464
:1078500030460FF0E7FB514BA5FB035A044648A303
:10786000D3E9002328465146FEF74AFCD8F80830F1
:107870004B4A0792A3F13A084A4B069620F07F47FD
:10788000A7FB0331E81A484B05934FF4F5730893AF
:1078900033694FF0000BCDE903B34FF0070303FB4F
:1078A00007116AEB01014FF47A720023FEF728FCFE
:1078B0000334E4B2CDE90170CDF80090434622468E
:1078C000012158460BF0A0FD10F0FD0F0DD0374AF6
:1078D0003749384840F2EB1321F0D2FF8BF311887F
:1078E000BFF36F8F0323184602DF012202211046E7
:1078F0000AF096FA15B0BDE8F08FC4F82B00988016
:107900000DE72A4A2C492B48FD2321F0B9FF00231B
:1079100083F31188BFF36F8F0323184602DFEDE670
:10792000002301220093184611460BF001FE8FE759
:1079300095F8273043F0400385F82730281D14F0D0
:1079400029FF4FF00109288520E70CF03BFE824516
:107950003FF47AAF154A1949164840F2922321F0B4
:107960008FFF84F31188BFF36F8F0323184602DF64
:107970006AE70022C4F82520A4F82920DAE600BF2F
:107980008D49FD1A0700000083DE1B437FC3C90138
:10799000404B4C008C49FD1A25C5030000CA9A3B98
:1079A000F1C403008D49FD1A65C503009828050040
:1079B0003C230500581D05004C200500F428050057
:1079C00010B5334C3349002304F1FF3C14F8332045
:1079D000072A02EB820E05D811F83E206FF34512FC
:1079E00001F83E201CF833206FF300020CF833201E
:1079F0000133082BEAD1284A284C002313700A7857
:107A000063F300020A7091F8282063F3000281F802
:107A1000282091F8502063F3000281F8502091F85B
:107A2000782063F3000281F8782091F8A02063F3B6
:107A3000000281F8A02091F8C82063F3000281F8C9
:107A4000C82091F8F02063F3000281F8F02091F84B
:107A5000182163F3000281F81821114A9FED0A7B77
:107A60001370104B83ED007B0F4B236028B1BDE8F2
:107A700010400E490E4828F06BBABDE810400C4883
:107A800028F072BAAFF30080FFFFFFFFFFFFFFFF98
:107A9000BD5000207C4F0020A36A00208C4E0020A7
:107AA000A26A0020B8270020A0BB0D00E1D203008D
:107AB00088270020000000002DE9F04F8FB00DF165
:107AC00037010446DFF8E0A0DFF8E0800DF1360072
:107AD0000CF026FD9DF836309DF837B00B930BF077
:107AE000ADFDDAF80060A6FB085629A3D3E9002310
:107AF0000027814631462846FEF702FBCDE907778D
:107B0000069420F07F44DAF80400234B0593A0FB91
:107B100008011FA3D3E90023FEF7F2FA1F4B20F060
:107B20007F40A4FB0331072202FB0411CDE903705F
:107B3000E81A66EB01014FF47A720023FEF7E0FACF
:107B40000097CDE901404B460B985A4603210BF0B4
:107B50005BFC10F0FD0404D06FF08B000FB0BDE8AB
:107B6000F08F0F480F4A00231EF0B4FD20B9DAF859
:107B70000C000FB0BDE8F08F9DF837209DF836005F
:107B80000094234603210BF0D3FC6FF07300E5E76C
:107B90008D49FD1A070000008DD803008D49FD1A9C
:107BA00030510020447B0B004851002000CA9A3B12
:107BB00038B50F4D04460BF041FDA9680BF040FDB0
:107BC000696803460B48B3FBF4F4A1FB00011C44B5
:107BD00005A3D3E90023FEF793FA20F07F40844207
:107BE00094BF0020012038BD8D49FD1A0700000018
:107BF0004851002000CA9A3BF0B5C468636883B05E
:107C00000546002B64D117F0CFFF002017F0F2FFDC
:107C10000021084617F0E0FF00222521082018F077
:107C20001DF8474B019301A818F004F8454940F2AC
:107C30005B6018F0B5F8237AC3F3420262F30613CF
:107C40002046237216F000FF15F09EFD58BB637AA4
:107C50009B071FD127682E68384616F03BFA06446A
:107C60006A6806F10901012018F0E2F918F0A0FA9B
:107C700020460EF08BFE811C3246C9B2384616F003
:107C800037FA054678BB204616F0CCF988B90020B3
:107C900003B0F0BD012015F0E5F94178821C0078B1
:107CA00018F066F9D6E7607A10F0030018BF0120DB
:107CB000F1E7254A2549264840F2294321F0E0FD15
:107CC00085F31188BFF36F8F0323184602DFDEE7C9
:107CD00093F82C309A0796D01E48214617F022FFC1
:107CE00018F008F8D3E7184A1B49194840F2114325
:107CF00021F0C6FD194B0721A5FB030301FB05314C
:107D00000DA3D3E90023FEF7FBF9154902461548F8
:107D100021F0B6FD002585F31188BFF36F8F032393
:107D2000184602DF1048214617F0FCFE17F0E2FF6C
:107D30006FF08B00ACE700BF00CA9A3B0000000068
:107D4000D6BE898E55555500F02C05002C1F050018
:107D5000581D050081E20300301E05008D49FD1A03
:107D6000A02D0500742D05001DE603000000000095
:107D70002DE9F041C468A28A4FF6FF739A4282B09F
:107D800000F0DF80054617F0A3F92B89628B208C69
:107D9000A3831A4492B2104494F82730E28380B24D
:107DA000411C21845E064FF00001618304F1220131
:107DB00000F1A18003F03F000B4694F828100090DA
:107DC00004F1290014F09EFC0646D4E90C31A28B84
:107DD00002FB0333A26B1344E26B8B4294BFD218B5
:107DE00052188A4228BF0A46E263616C226C94F8FA
:107DF00067301144616494F87E2094F82C10C3F32A
:107E0000020363F3061112F004024FF0000384F83A
:107E10002C10A363236478D017F0C6FE002017F05F
:107E2000E9FE201D17F006FF2389A17A40F25B606E
:107E300043EA014117F0B4FF304616F06BF92146D2
:107E4000594817F06FFEA08918F0E6F894F86620FC
:107E500094F86700C2F3C003002102F0070200F0AB
:107E6000070018F003F8204617F0DCF927682E68A1
:107E7000384616F02FF906446A6806F10901002019
:107E800018F0D6F8804618F067F9002018F07EF94F
:107E9000E36B94F8670003F12F02636C00F00700B6
:107EA000012103EB420517F017FF4544054494F800
:107EB000670000F00700022825D004280CBF4FF40B
:107EC000BC73282301211D4417F008FF284418F033
:107ED00035F9A18A03313246C9B2384616F008F99D
:107EE0000546002834D1204616F09CF8D0B9002071
:107EF00002B0BDE8F0810A4603F03F03218D14F083
:107F00004DFC064661E71823DCE7D4E91A0109F0C5
:107F10004FFF002880D194F87E3043F0040384F8AA
:107F20007E3079E7214A224922484FF4B07321F08C
:107F3000A7FC85F31188BFF36F8F0323184602DF78
:107F4000D5E71D48214617F0EDFD17F0D3FECEE72B
:107F5000164A1A4917484FF4AB7321F091FC184B9D
:107F60000721A5FB030301FB05310DA3D3E9002382
:107F7000FEF7C6F813490246134821F081FC00259C
:107F800085F31188BFF36F8F0323184602DF0F4874
:107F9000214617F0C7FD17F0ADFE6FF08B00A7E785
:107FA00000CA9A3B000000009DF403002C2E05003F
:107FB0002C1F0500581D050081E20300301E05003E
:107FC0008D49FD1A802E0500742D05005DE2030029
:107FD00001481EF059BD00BFF001002007B528F090
:107FE00042F94FF47A72A0FB020302FB0131C00B8D
:107FF000074A40EA4140106000234FF40042054820
:10800000CDE900231FF0FAFB002003B05DF804FB6C
:10801000282C002098080020014B187800F0FCB9AB
:1080200060690020044B1A78824202D01870FFF772
:10803000F3BF0020704700BF6069002008B528F03A
:1080400012F94FF47A72A0FB020302FB0131114ACC
:10805000C30B126843EA41439B1A0F4A934214DD53
:1080600001F0C8F920B1BDE808400120FFF7DABFF0
:108070000220FFF7D7FF00F081F9002803DABDE8FE
:10808000084000F0B3B921F008FC47F230529342A7
:10809000E9DC08BD282C002080EE360008B528F069
:1080A000E2F84FF47A72A0FB020302FB0131C00B2D
:1080B000044A40EA41401060BDE808400020FFF754
:1080C000B1BF00BF282C0020014B1878704700BFBB
:1080D00060690020F8B5044610B900252846F8BDAF
:1080E0000378002BF9D00F4E0F4FBE420FD30D4E29
:1080F000BE42F2D2306827F068FC30B135682146C4
:108100002868FEF717F80028E8D00436F0E7306852
:1081100027F05BFC18B135682B68A342DED004362B
:10812000E3E700BF805305009453050070B5194C78
:10813000194D8CB00022002303A920461EF034F90B
:1081400008B10CB070BD2B68059E5868DDE90312BC
:1081500020F039FE0028EDDBFF238DF81830B6FA49
:1081600086F35B0907908DF8203028F07CF84FF4F7
:108170007A72A0FB020302FB0131C00B40EA4140CE
:10818000C90B8DE8030006ABCDE90A010FCB00F067
:108190005DF9CFE7A0090020742C00201FB50A4C20
:1081A0002468A46884420DD183F00103CDE9011253
:1081B000039306480022002301A91EF097F8044803
:1081C0001EF062FC04B010BD742C0020A009002039
:1081D000642C00201FB50023CDE90233044B8DF839
:1081E0000C0001A8019320F015FE05B05DF804FB1A
:1081F00008150500014B03600E2070472C2C002051
:1082000038B5044600282FD0194D2B68834229D059
:1082100053B1986840B183685B6803B198472B6895
:108220000021986801F0C6FC1249134B8C4214BF20
:10823000ED2100210E22002020F0DFFD002812DBBE
:10824000A0682C6070B1012101F0B4FC2B68986823
:1082500083680A491B6898472B68986883689B68FD
:1082600003B19847002038BD6FF01200FBE700BF54
:10827000742C0020F41405002C2C00209D81020099
:1082800038B5054648B90648FFF7BAFF041E02DBB9
:108290002846FFF79FFF204638BD6FF01504FAE728
:1082A000F4140500F7B50C4615460D4901AA1E4603
:1082B00022F011F968B1019B6BB9012C0DD1094F66
:1082C000224639463046A847002802DD3878FFF7B5
:1082D000D7FF03B0F0BD0020FBE76FF01500F8E713
:1082E000163C0500380800200148FFF789BF00BF91
:1082F000F414050008B50B480B4927F0DCFD0B48CA
:1083000022F026F818B10948012121F0F5FF084AAA
:10831000002342F8043B01330E2BFAD1BDE808409C
:10832000FFF7E2BF642C00202D810200000E050043
:108330002C2C0020F8B50F4D0F4E761B07460C462F
:1083400005EBC105C6F3C706A64201DC00200CE020
:108350002A683B689A4209D13C716B6838461B68B1
:10836000984718B1431E012BF0D9F8BD01340835E8
:10837000EAE700BFA84605000847050037B501A891
:108380001DF0FAFD174D019C00232B601823584364
:1083900018380444019B9C4202D2002003B030BD37
:1083A000204627F012FBD0B1204621F09BFFB0B948
:1083B000204621F0C3FF014688B9204601F0FAFBB0
:1083C00020F0200378330AD010F1860F07D0002860
:1083D000E4DB2B68044A42F8234001332B60183C4D
:1083E000D8E700BF782C00209208002070B5084D17
:1083F000084E2C68013C002C02DA00232B6070BD73
:1084000056F82400012101F0D5FB013CF3E700BF41
:10841000782C0020920800201FB50023CDE90233FC
:10842000044B8DF80C0001A8019320F0F3FC05B07B
:108430005DF804FB0C1505000268034B9A420CBF63
:1084400008300020704700BF0C15050084B030B51F
:1084500089B00CAC84E80F00002301930CAD084BED
:1084600000930FCD02AC0FC495E8030084E803002D
:10847000684620F0CFFC09B0BDE8304004B070473A
:10848000101505000268034B9A420CBF083000200B
:10849000704700BF101505001FB50023CDE902335A
:1084A000044B8DF80C0001A8019320F0B3FC05B03B
:1084B0005DF804FB1815050082B038B504A981E801
:1084C0000C00054611481DF063FD0446A0B16B6821
:1084D000012B0CD0022B05D0A3B9BDE8384002B067
:1084E00020F0AEBC20F0B3FC00282046F5DCBDE84F
:1084F000384002B020F09DBC6FF00400BDE8384069
:1085000002B070476FF08500F8E700BFD93C050066
:1085100082B010B502A981E80C0004460B481DF09A
:1085200037FD78B16368022B04D00020BDE810400D
:1085300002B0704720F08BFC0028CCBF0020012047
:108540006060F2E76FF00400F0E700BFD93C05007F
:108550000D4A52F82030013342F820300B4A0123F3
:10856000117883400B430A490978DBB2137023EA80
:1085700001030849084A097850780B43181A5370C8
:1085800018BF0120704700BF7C2C002063690020C9
:1085900061690020626900204608002010B5114A78
:1085A00052F82030002B19DD013B42F820300E4AF2
:1085B0002BB913780121814023EA010313700B4882
:1085C0000B4B047810780B4A5978127820EA040093
:1085D00010435870401A18BF012010BD6FF01500ED
:1085E000FBE700BF7C2C002063690020616900204C
:1085F0004608002062690020044A01231278834063
:10860000D8B213401B1A5842584170476369002082
:1086100010B5084B084A1870084B51781C78084B65
:108620001B7823EA040318435070401A18BF012036
:1086300010BD00BF6269002046080020616900206B
:1086400063690020074B00221A70074B074A19780C
:10865000074B50781B7823EA0103181A537018BF90
:1086600001207047626900206169002046080020EF
:1086700063690020A0F1E003072B03D82030C0B2CB
:10868000FFF766BF064B062213F8011F19B1013A26
:10869000FAD10020704718700028F8D0F9E700BF21
:1086A00048080020A0F1E003072B10B405D82030C3
:1086B0005DF8044BC0B2FFF771BF0023064A1946AC
:1086C00012F8014F0133A04208BF1170062BF7D1F9
:1086D00000205DF8044B704748080020A0F1E0033B
:1086E000072B03D82030C0B2FFF786BF064A00230D
:1086F00012F8011F884204D00133062BF8D1002064
:1087000070470120704700BF48080020024B00223C
:108710001A605A60704700BF47080020B0F5805FBC
:1087200010B510D20949002301EB4302B2F8014011
:1087300024B10133062BF7D1002010BDA2F80100AF
:108740000028F6D0F8E76FF08500F6E7390800203A
:1087500030B50023074C194604EB43020133B2F84D
:108760000150854204BF51709170062BF4D1002056
:1087700030BD00BF39080020024B00221A605A6049
:108780009A6070473A080020074A002302EB430131
:10879000B1F80110814204D00133062BF6D100203C
:1087A00070470120704700BF39080020004870471B
:1087B00046080020004870473908002010B50D4BCE
:1087C0001C78012C04D0022C0BD00024204610BDB4
:1087D00000F044FE0028F9D100F076FB4400E4B23A
:1087E000F4E700F071FB0028F0D1BDE8104000F084
:1087F00035BE00BF4F08002008B50B4B1B78012B7E
:1088000007D0022B09D0002B0CBF00206FF0850091
:1088100008BDBDE8084020F042BEFFF7C7FFBDE835
:108820000840013000F0D8BC9C2C002008B50B4B50
:108830001B78012B07D0022B09D0002B0CBF002086
:108840006FF0850008BDBDE8084020F030BEFFF79E
:10885000B1FFBDE80840013000F0E4BC9C2C0020D2
:1088600002490348012202F0FFB800BF4F08002070
:10887000073D0500F7B50C4615461B490022074683
:108880001E4621F028FE024648B1012C29D1174985
:1088900022463046A84700EAE07003B0F0BD144914
:1088A000384621F018FE0028F7D0012C19D12246B5
:1088B0000DF107013046A8470028EEDB9DF8073090
:1088C0000A4D0C48012B0CBF022301232B7021F011
:1088D000FBFD0028E1D122462946074802F0C4F8F2
:1088E000DBE76FF01500D8E7113D05004F080020C9
:1088F000263D05001C3D0500073D050013B509494F
:10890000094827F025FBFFF759FF6C460146204632
:1089100020F05DFB94E80300044B83E80300002093
:1089200002B010BD61880200780C00209C2C002051
:1089300082B00DF1080C0CE9030019469DF80030D7
:10894000012B104606D0022B06D053B9064A02B0BE
:108950001EF0DCBF054AFAE7019B054A02B01EF093
:10896000D5BF044AF3E700BF303D0500353D0500A3
:10897000393D0500403D0500034A034692E80300E7
:1089800083E80300184670479C2C0020024B18789F
:10899000003818BF012070479C2C002030B589B0EA
:1089A000FFF70CFF01AD0F4C0146284620F00FFBEE
:1089B00094E80C0095E8030020F017FB80B920F044
:1089C0004BFB95E803000A2305AA84E80300FFF7A0
:1089D000AFFF94E8030003AB83E8030000F004F862
:1089E00009B030BD9C2C00207FB56B4683E80300A6
:1089F00093E80300002206AB03E90300039202A8F8
:108A0000034A029220F006FA07B05DF804FB00BFAB
:108A10008815050030B585B078BB11B9002005B0C8
:108A200030BD1848184D01682C6841F001030360FF
:108A300032B344F00100994228601BD04FF4807398
:108A4000ADF800308DF8022027F00DFC4FF47A725B
:108A5000A0FB020302FB0131C00B40EA4140C90BFD
:108A6000CDE9020104AB13E90F0005B0BDE83040C9
:108A700000F04CB88442E1D1D0E76FF01500CEE7AA
:108A80009942F8E7DC2C0020E02C00200D2913B5DA
:108A90000C4602D9002002B010BD0028FAD101A86E
:108AA000FFF7A8FB0028F5DB8442F3DA019B53F8BB
:108AB00024300D2BEED802480C2202FB0300EAE71B
:108AC0009415050073B50F4B06460C4615461AB1B2
:108AD0000D4A126843F8212053F82410002020F09A
:108AE0001BFB58B1DDE906230021CDE90023304608
:108AF0002B46224620F022FB002801DD6FF0850086
:108B000002B070BDA42C0020DC2C002010B58AB06F
:108B10006C4684E80F0000230593064B049394E809
:108B20000F000AAC04E90F0004A820F073F90AB0A2
:108B300010BD00BF3C16050084B030B589B00CAC48
:108B400084E80F00002301930CAD084B00930FCD78
:108B500002AC0FC495E8030084E80300684620F0E7
:108B600059F909B0BDE8304004B07047441605001B
:108B70000268034B9A420CBF08300020704700BFC8
:108B80004416050007B56B4683E8030093E803002D
:108B900020F048FA024B185C03B05DF804FB00BFFC
:108BA0006469002013B56B4683E80600044693E829
:108BB000030020F037FA044B1C54044802B0BDE80F
:108BC00010401DF061BF00BF64690020000200205A
:108BD0007FB56B4683E8030093E80300002206ABF1
:108BE00003E90300039202A8034A029220F012F95B
:108BF00007B05DF804FB00BF4C160500074B1A7860
:108C0000074B82B0162102FB013301938DF800203F
:108C100002AB13E9030002B0FFF7DABF6B69002073
:108C20006C69002002490348012201F01DBF00BF0A
:108C30006B690020D43D050008B5002003F03CFE20
:108C4000002802DA10F1780F07D1044821F040FC27
:108C50000348044927F07CF9002008BD5C0200208D
:108C6000A80C0020258C020070B503788AB0044659
:108C70000E4607AD032B20D8DFE803F002191B1DB9
:108C800011492846FDF760FA059563780493A378A7
:108C90000393E37802932379019363790093A37993
:108CA0000A4A1E2130461EF031FE0AB070BD084946
:108CB000E7E70849E5E70849E3E7084A0A212846C3
:108CC0001EF024FEE0E700BFE73D0500103E050072
:108CD000EE3D0500F53D0500FF3D0500093E0500A0
:108CE00010B590B0044622F064FF6946FFF7BCFF60
:108CF00008A9204605F0A4FC9DF82130012B14D1D1
:108D00000B481DF0C1FE204622F053FF094B197895
:108D10000F22162313FB012307490722194427F0CA
:108D20001CFD10B905481DF0AFFE10B010BD00BF0E
:108D3000780200206B6900206C6900208802002006
:108D40002DE9F0418AB00D4616461F496A46044691
:108D50001F4621F0C0FB08B30098F8B10A2201A910
:108D60001EF028FE019B1B785BBB162D29D1C4B2D7
:108D7000042C26D8DFF85C806C432A4608EB0401FB
:108D80003846B047002806DD04F10F0002A9404430
:108D9000FFF76AFF00200AB0BDE8F0810B496A4680
:108DA000204621F098FB0028F4D0009B002BF1D145
:108DB000012D06D106492A463846B04700EAE07040
:108DC000E9E76FF01500E6E7333E0500D83D050002
:108DD0006B6900206C690020042808B50DD80F22AB
:108DE000162313FB0023064806490722184427F0E0
:108DF000B4FCB0FA80F0400908BD0020FCE700BFD9
:108E00006C69002029400500014B1878FFF7E4BF8A
:108E10006B6900202DE9F0410C468EB005464FF0FD
:108E2000160806A9204615FB08F7FFF71DFF0D4E93
:108E3000216807F10F029319B150A2889A80A27994
:108E40009A7109492A4601A81EF08CFD4246F11983
:108E500001A801F009FE05481DF016FE0EB0BDE8A0
:108E6000F08100BF6C6900203C3E050088020020B4
:108E700010B5042888B002D9002008B010BD0F2317
:108E8000162414FB00340E4B0E491C4407222046C6
:108E900027F063FC0028EFD02146002005F07EFB80
:108EA00004460028E8D0694605F0CAFB204605F0D4
:108EB00049F89DF81C00831E58425841DDE700BF69
:108EC0006C69002029400500014B1878FFF7D0BFDE
:108ED0006B690020F0B58DB0FFF796FF98B9FFF7EA
:108EE000F3FF80F001035B00DBB2214D2A7803EB36
:108EF0000213112B09DC022B2DD0102B23D00024C0
:108F000020460DB0F0BD0223EFE7202B1BD0122B23
:108F1000F5D104F087FB00232B7004460028EFD125
:108F2000144F0FCF02AE0FC63B68134933600322C4
:108F30000094234602A804F043FB04460028DFD136
:108F400002232B70DBE704F06DFB00232B7004463B
:108F50000028D4D0D4E7074E0FCE07AC0FC4336837
:108F60002360002304490093032207A8E3E700BF1E
:108F7000DA690020A01105009802002030B591B0F8
:108F8000054622F016FE69460446FFF76DFE08A965
:108F9000284605F055FB9DF82130012B05D1FFF740
:108FA00033FF214618B903F03DFA11B030BD034B31
:108FB0001878FFF72FFFFFF78DFFF6E76B690020AA
:108FC00030B591B00D4608A9044605F039FB9DF86F
:108FD0002130012B0BD1204622F0EBFD6946FFF733
:108FE00043FE0F4B00221A701DB1FFF773FF11B043
:108FF00030BDFFF76FFF204622F0DBFD094B1978EB
:109000000F22162313FB012307490722194427F0D7
:10901000A4FB0028EBD105481DF036FDE7E700BFB3
:10902000DA6900206B6900206C690020880200204A
:1090300008B5064805F072FA054805F005FC054834
:1090400005F01CFCFFF746FF002008BD3C02002095
:109050002002002010020020014B1878704700BF4A
:109060006B69002070B5094D064600240722294689
:10907000304627F072FB30B10134052C05F116059E
:10908000F4D16FF01204204670BD00BF7B69002050
:1090900010B50A4B0A491A7816240F2314FB023420
:1090A000084B1C440722204627F057FB28B12146D5
:1090B0000020BDE8104005F071BA10BD6B690020BA
:1090C000294005006C6900201FB561240294044CFE
:1090D0000194BDF81840009423F00FFF04B010BDB8
:1090E000683E050007B5064B009306490648052370
:1090F0004FF440721DF0CEFC002003B05DF804FB7D
:1091000050160500C06A0020D80C0020F0B5164E9D
:10911000164F89B000220023694630461DF044F9FD
:10912000054608B109B0F0BDFFF7B2FF04460028BC
:10913000F8D01822294602A827F089F908230DEB58
:10914000030120460397CDF810D0ADF8143007F096
:10915000B9FA013003D10221204622F0EBFC20466F
:1091600004F0F0FED6E700BF000A0020BC160500A0
:109170002DE9F041164FDFF85C808AB001AE002285
:109180000023314638461DF00FF9054610B10AB0EC
:10919000BDE8F081FFF77CFF04460028F7D01822D5
:1091A000294604A827F053F90C2304A92046CDE949
:1091B0000586ADF81C3007F085FA013003D1022195
:1091C000204622F0B7FC204604F0BCFED7E700BFE3
:1091D000D00900200C17050037B5054640F6CD42F2
:1091E000014600230C481DF081F8044678B110F1C7
:1091F0000B0F09D100220023694607481DF0D4F85F
:109200002846FFF7E9FF0446204603B030BD034976
:10921000034826F06CFEF7E7000A0020C002002099
:10922000D80C002030B5054685B040F6CD42014649
:1092300000230D481DF05AF8044678B110F10B0FC9
:1092400009D10022002301A907481DF0ADF82846E6
:10925000FFF7E8FF0446204605B030BD0349044847
:1092600026F045FEF7E700BFD0090020B00200203D
:10927000D80C00201FB50023CDE90233044B8DF834
:109280000C0001A801931FF0C5FD05B05DF804FBBB
:10929000C417050008B500F053F9BDE808400149BE
:1092A00026F025BE8003002013B5114B1C68A3686F
:1092B0003021DB6820469847C0B9A3686A461B691D
:1092C00030212046984788B90A4C00982378834279
:1092D00004D0C0B22070FFF7CDFF38B901F096FB83
:1092E0002378984202D0184601F096FB02B010BDD8
:1092F000E42C0020DC69002007B5094B186826F033
:1093000064FB48B14FF4F0120023CDE90023054877
:10931000002200231EF072FA03B05DF804FB00BFC8
:10932000E42C0020D008002008B5FFF785F810B91C
:109330006FF0850008BDFEF7C7FE38B10138C0B236
:109340000128F5D8034826F0D5FF01E0FFF7D4FF48
:109350000020EFE7D008002008B508481CF018FEF0
:10936000074A106010B96FF0120008BD26F02DFBFF
:109370000028F8D0FFF7C0FF0020F6E7083F0500FF
:10938000E42C00201FB50023CDE90233044B8DF8F7
:109390000C0001A801931FF03DFD05B05DF804FB32
:1093A000CC17050008B502481DF06EFB002008BD73
:1093B000A003002008B5054826F007FB20B1BDE852
:1093C000084002481FF0C1BF08BD00BF480E05009D
:1093D00008B5044801F034F8002818BF6FF01500F4
:1093E00008BD00BF1D940200014B1878704700BFF4
:1093F00066080020084B1B780B2B4FF001000AD8A1
:10940000984010F4CD6F05D110F4016F0CBF01200E
:109410000020704702207047660800200A2808B51F
:10942000024613D00A4B0B491870FFF7E3FF0228DE
:109430000AD10B78032A08BF43F001030B70BDE883
:10944000084005481DF020BB0023F7E708BD00BF1A
:1094500066080020DD690020B003002008B5FFF792
:10946000C9FF022806BF034B1878002000F0010056
:1094700008BD00BFDD69002010B50948094C1CF08B
:1094800087FD206048B1084B0849612202F082FB49
:10949000206821F06CFA002010BD6FF01500FBE78A
:1094A000363F0500E82C0020F41705003C3F05007E
:1094B00038B504460D46FFF797FF0B280BD8DFE8B9
:1094C00000F01E1E0A0A1E060A0A0A0A0A1EBDE843
:1094D000384000F093BF4FF47672002309481DF026
:1094E000F9F809482146006800232A4621F049FA84
:1094F000044610B103481DF0B3F8204638BD6FF0A4
:109500001204FAE7480A0020E82C002001481DF068
:10951000A7B800BF480A002007B5064B00930649CC
:1095200006480A234FF440721DF0B4FA002003B03D
:109530005DF804FB0C180500C06D0020C00D002074
:1095400000487047C00D002010B5094C0A449142F4
:1095500000D110BD11F8013B584003090001E35C44
:10956000C0B2434018091B01205CDBB25840EEE753
:10957000B53F0500014B1B68184700BFC003002022
:1095800030B585B004460D4610220021684626F00D
:109590005EFF02238DF802302A46044B01932146D8
:1095A00068461EF009FB05B030BD00BF759502008E
:1095B00080B505460E46174698461DF041FE034607
:1095C00027F0E0FADFF81890044649F800304246E8
:1095D00030463946A84754F8090001F01DFE00BF87
:1095E0000800000008B50446EFF31183202383F33D
:1095F0001288BFF36F8F19F0CBFE204601F0FAFD01
:10960000024820F030F921F0BCF8FCE7C53F050026
:109610002DE9F047058B04462807904611D402290E
:1096200005F0070540F0CC80204620F0D4F978B151
:109630000138218B042811D8DFE800F0C2106D85B5
:10964000950001290CBF45F0100545F02005258344
:1096500088F31188BFF36F8FBDE8F08701F0070A28
:10966000AA4500F0A5800027B9463E46A368002B16
:1096700000F0BC8041F00801218388F31188BFF31A
:109680006F8FA168002900F0BA800D68002900F0F2
:10969000B680D1F80480334652462046C047002D9C
:1096A00076D02B6829461D46F0E701F007035A1FC4
:1096B000012A1BD8002221F00701062B276889B256
:1096C000C4E9002209D13B4603E0628B0132628388
:1096D0001B68002BF9D141F002012183204620F0C4
:1096E0007AF900287AD041F0200176E0042B0AD1E3
:1096F00021F0070189B22183204620F06CF910B1D6
:1097000041F020012183218B01F0070AAA454FD0A7
:109710000027B946AAE7236921F0070141F00601B5
:10972000062DD3F8009021832DD1B9F1000F3FD041
:1097300041F00801218388F31188BFF36F8F3A4904
:109740002046C84729E021F00701236941F00401C0
:1097500089B2042DD3F804902183E6D000273E4639
:109760004FF0040A82E721F00701236941F0050167
:1097700089B2052DD3F808902183D6D000273E4624
:109780004FF0050A72E700273E464FF0060A6DE7E4
:109790002B4687E7B9F1000FD1D1EFF311882023D1
:1097A00083F31288BFF36F8F238B23F00803238387
:1097B000258BEA062ED525F01003238305F0070537
:1097C0006669218B002EBFF670AF00232768C4E9BD
:1097D000003321F0070141F001012183218B01F0C9
:1097E000070AAA454FF000097FF440AF002F9CD034
:1097F00041F00801218388F31188BFF36F8F002F98
:10980000C8D03D68394633465246204620F00FF90D
:109810002F46F4E7AB067FF51BAF25F0200323832B
:1098200005F0070500E700BF5B9A04002DE9F74348
:109830000F4606460821C06ADFF8509020F05AFA19
:109840003C68241A80463C6004EA0905AC4203D80F
:10985000002003B0BDE8F08308236A462146304665
:1098600020F0E0F90028F4D16946304620F04CFAA7
:1098700040B1BDF80230BDF804203C6005EA09059E
:1098800013441D44A4EB0804E0E700BF0000FFFF01
:1098900073B504460821C06A124E20F02BFA4FF629
:1098A000FF726368ADF800208DF80620A2891918B0
:1098B00033401344181A002560606846ADF8021062
:1098C000ADF8045020F00DFA6946204620F0DCFA8D
:1098D0002046211D20F0DFF9636828463340A3604D
:1098E00002B070BD0000FFFF2DE9F047044688B0CC
:1098F00000F11407384626F072F9A06A8368DB6825
:109900009847E06228B96FF01505284608B0BDE811
:10991000F087A06A8368DB6898470368013B1F2BC8
:10992000F1D8A06A216805AA24F05EFB0028EAD1DC
:10993000A589002DE7D0069BB5FBF3F203FB12557A
:10994000002DE0D1E389012BDDD9E36A009593F87E
:1099500005904FF0FF334FF0FF3238461CF086FD84
:10996000E06A082120F0C6F9A8460646E3891FFAF6
:1099700085FA534508D8E389434523D138461CF07E
:10998000EDFD6FF02C05C0E7A1892B04891B13FAAC
:1099900081F14A4608232046009120F051F978B120
:1099A0006946204620F077F908F10108009908235C
:1099B0004A4620461FFA88F820F042F90028DAD0FB
:1099C0000135D3E753450BD1009908234A46891B3B
:1099D000204620F035F918B96946204620F05BF999
:1099E00069462046FFF722FF054618B138461CF0AD
:1099F000B5FD8AE7009B63604FEA13484FEA0848C9
:109A0000C4F80880D4E9011399420FD3082301AAAE
:109A1000204620F007F905460028E7D101AB13F8EE
:109A2000012B914533D10135082DF8D163681B0C0A
:109A30001B0469462046009320F02DF9A389009964
:109A40004A46204620F0FCF8051ECFDB636876D03E
:109A500006EB03084FF6FF79A389CDF800801FFAC3
:109A600088F29B1B9A422ED300236168002B43D0BF
:109A7000090C090400912046694620F00CF9009970
:109A8000204620F015F90546002D74D0AEE701A957
:109A9000204620F039F9626810B9921B6260B1E784
:109AA000BDF80850BDF80610E06AC4F808802944E3
:109AB00020F020F940449042A060EED1002DECD07F
:109AC0006FF01C0568E0082303AA4146204620F0F9
:109AD000A9F80546002889D103A9204620F014F9E9
:109AE00030B1BDF80C304B4502D1BDF810300BB190
:109AF000B044B1E70123B8E7204620F0D9F8054685
:109B000000287FF473AF6368264AA18913400B4491
:109B1000A3EB460363601340A360204620F0DCF90A
:109B2000B1E75B1A4A46204620F08AF8051EFFF688
:109B30005DAF08D0E26AA36812681344A360D4E959
:109B400001318B42EDD86168A38901EB46029A424C
:109B50009AD1DFF85080A26801EA08039A4293D0B4
:109B6000204620F0A5F8054600287FF43FAF636843
:109B700003EA0803A360A389A288A3EB46039A42E1
:109B800006D038461CF0EAFC012323740025BCE60D
:109B9000204620F08AF9054638461CF0DFFC002DEF
:109BA000F2D0B2E60000FFFF014B036000207047D7
:109BB0001418050070B544690D46002C3FD0244AA6
:109BC0002379565CB3423DD0224A525C9A423CD142
:109BD000A3689847002814DA022D10D0032D0FD166
:109BE00010F1860F0BD0BFF35B8F54E8003F43F0BA
:109BF000020344E80032002AF7D1BFF35B8F2671DD
:109C000070BD022D267101D00020F9E7BFF35B8FF4
:109C100054E8003F23F0040344E80032002AF7D15F
:109C2000BFF35B8FBFF35B8F54E8003F23F0020369
:109C300044E80032002AF7D1BFF35B8FE4E76FF00E
:109C40005700DDE76FF07700DAE76FF08500D7E7C0
:109C5000F23F0500EE3F050070B5104B1C680D4645
:109C6000B4B10F4B196800238B4202DB6FF0010087
:109C700070BD224612F8106B864202D001331446A2
:109C8000F2E7E06825F0A1FE28B12C600020EFE7A4
:109C90006FF00C00ECE76FF01200E9E7C40300205E
:109CA0001418050010B588B0436802938368C06833
:109CB000CDE903320A680023CDE906230C4601AA48
:109CC0000449059324F094F9079808B9059B23608B
:109CD00008B010BD67A30400F0B40C4B0C4E5F6AD3
:109CE0000C4BB34203D36FF08500F0BC70475D6846
:109CF000BD4209D31C693CB195F802C00579AC4559
:109D000002D12346F0BC18472433EAE7EC2C0020AC
:109D1000780C0020540C00202DE9F047134CDFF89C
:109D20005080DFF8509005460E461746444503D351
:109D30006FF08500BDE8F0876268D9F824309A4258
:109D400012D3A36983B190782979884205D13A4624
:109D500031462846BDE8F04718475279012A03D119
:109D60003A463146284698472434DFE7540C002011
:109D7000780C0020EC2C00202DE9F0410B4CDFF892
:109D8000308005460E461746444502D36FF08500E5
:109D900009E063690BB92434F6E73A4631462846B0
:109DA00098470028F7D1BDE8F08100BF540C00208F
:109DB000780C002010B5044624F00CF810F1780F50
:109DC00000D050B9054A204620F008FBD2F8C43034
:109DD00023EA0003C2F8C430002010BDEC2C0020A0
:109DE000024B00221A605A60704700BFA72D002066
:109DF00070B50B4B0B4CA34201D3002070BD196A08
:109E00001E7F00220439D5B2AE4201D82433F2E7D6
:109E1000013211F832508542F5D10120EEE700BF42
:109E2000540C0020780C002008B509480378C3F3CF
:109E300041130A3350F823303BB100F1080200F11E
:109E400010019847C043C00F08BD1846FCE700BF8B
:109E5000EC2C002004282DE9F14FDFF8A0900446F7
:109E60000F4616D001282DD1DFF88C8098F8B93034
:109E700043B300F06DFD1F4D4D4520D2D5F820B005
:109E80004FF0000A2B7F5FFA8AF6B34204D82435DC
:109E9000F2E7FFF7A5FFE7E70BEBC6060AF1010AB9
:109EA000307923F097FF0246307920F097FAD8F8FE
:109EB000C430002A23EA0003C8F8C430E2DA0023E1
:109EC00088F8B9300B4D4D4508D30B4B1B6A6BB16D
:109ED0003946204601B0BDE8F04F1847EB681BB18A
:109EE0003A462146284698472435ECE701B0BDE8BC
:109EF000F08F00BF540C0020EC2C0020780C0020C8
:109F000073B5C4B263060D468DF8074007D02046EE
:109F1000FFF76EFF78B10D4B93F8BA0058B10B4EB6
:109F2000204655B117F036F8F3691BB10DF1070162
:109F300008209847012002B070BD17F053F8F3696C
:109F4000002BF7D00DF107010920F2E7EC2C0020DF
:109F500073B586788DF80060037942791C4C43EA2A
:109F60000223ADF80230C378304603F003038DF8C6
:109F7000043020F033FAD4F8C430184205460BD030
:109F8000304600F0C7FC3046FFF714FF26F03CF8DF
:109F900010B996201DF012F9684616F0D7FF10F19F
:109FA000780F03D010B1002002B070BD9DF8000002
:109FB00017F054F810F1780F01D00028F3D1D4F83D
:109FC000C43001202B4384F8B900C4F8C430EBE757
:109FD000EC2C00202DE9F047A34EB36904460F4650
:109FE0001546FBB9237803F01F03012B00F09D8079
:109FF000022B00F0048133BB94F900002A686178D9
:10A00000002834DA062912D008292BD0D9B9012327
:10A010001370517096F8C3305B0043F00103137066
:10A0200002232AE198470028DCD100200DE0628855
:10A03000100A011F0129844605D9072803D8716A2F
:10A04000D2B20C781CB96FF01500BDE8F0874E78DD
:10A05000664503D19A4200F00B8101332144F0E7B9
:10A060000B780AE196F8BA301370012305E1013943
:10A070000829E8D801A353F821F000BF15A1020078
:10A0800047A0020023A1020047A00200A1A00200F5
:10A0900047A0020047A0020047A00200ADA00200B6
:10A0A000A07816F041FF0028BFD0CCE76388756A1E
:10A0B00063BBFFF795FE638886F8BA30F369002B1F
:10A0C000B3D06A4903209847AFE76B78042B10D0D0
:10A0D000052B11D0022B04D16F796388BB4208BFD6
:10A0E00001202B781D442B78002BEED10028AAD01C
:10A0F000DFE795F80380F4E76388BB42F1D1B8F15C
:10A10000000FEED12846FFF723FFEAE7FF270020E4
:10A11000B846E8E76388012B95D1002386F8C33061
:10A1200083E76388012B8ED1F8E796F8BA30D5F82B
:10A1300000C0002B87D0756AA38894F804E02A46F3
:10A14000107800283FF47FAF5178022904D192F8AB
:10A150000480F04500F293800244F1E78CF800207F
:10A160008CF80120396060E7154494E00B2A7FF4F5
:10A170006AAF00274FF0FF08C146BA4606E06B7889
:10A18000042B0FD0052B21D02B781D442B78002BCE
:10A19000F5D1F36913B1514607209847002F7FF49A
:10A1A00044AF50E795F80280A38895F8039098454E
:10A1B000EAD163889945E7D1B8F1070F1CD806EBBF
:10A1C0000803AA4683F8BB900127DDE7A38843452F
:10A1D000DAD1A3784B450AD0AF78384600F09AFB25
:10A1E0003846FFF7E7FDB0FA80F77F09CCE728464D
:10A1F000FFF7AEFE0746C7E7AA460027C4E794F973
:10A2000000206378002A18DA002B7FF41CAF247931
:10A210002D6863060AD02046FFF7EAFD00283FF4C8
:10A2200012AF96F8BA30002B3FF40DAF2946204606
:10A2300016F0F8FE00236B70F2E6012B08D0032B1A
:10A240007FF401AF6388002B7FF4FDAE012103E0B2
:10A25000618800297FF4F7AEA088FFF751FE00283F
:10A260007FF4E3AEEFE600BFEC2C0020A62D00202B
:10A27000022829607FF4F4AE4B883B60D5E694F960
:10A28000000062780028BFF671AF002A3FF466AF85
:10A290000A2A7FF4D8AE2A78002A3FF4D4AE69782F
:10A2A00004297FF461AFA9788B427FF45DAF072B5F
:10A2B00096BF9B19002393F8BB308CF80030D4E68E
:10A2C00013B5164C237DF3B9E268A168019201AB86
:10A2D000802020F091F8019AA3681344A360E368FA
:10A2E0009B1AE3606BB962B12369E2889A4208DD88
:10A2F00094F8C82093FBF2F102FB11330BB9012350
:10A30000237502B010BD00231A461946802023751C
:10A3100002B0BDE8104016F0CBBE00BFEC2C002010
:10A3200030B585B0002302460D460193002858D170
:10A33000002935D108220B460DEB020123F063FD05
:10A34000002804DA802016F025FE05B030BD2A4C26
:10A35000029A2260039A626004F13802A2609DF9B9
:10A360000820BDF80E302575002AC4E903550ADB24
:10A37000802B04D9802016F00DFE0020E3E713B1F6
:10A38000C4E90333E1E7FFF74FFD0028DAD0E288A4
:10A3900023699A42D4BFE260E360FFF791FFD4E7FC
:10A3A000154CD4E90215002D01AB04DC23F02BFD84
:10A3B0000028CADAC6E72A4623F025FD0028D9DBA3
:10A3C000019AA3681344A360E3689B1AE360002B1F
:10A3D000BBD104F13803A360FFF726FD0028DCD1D0
:10A3E000B0E78028B1D1044BDA68002AD5D11B7DB3
:10A3F000002BD2D1A9E700BFEC2C0020044B93F82E
:10A40000C3300BB123F00EBD6FF00C00704700BFDE
:10A41000EC2C0020054B064A9A62064ADA62064A8C
:10A420001A63064A58629A6100207047EC2C00209B
:10A43000D59F0200D99C0200799D0200199D02005F
:10A440002DE9F3410446474D47484FF0FF334FF0A5
:10A45000FF321CF00BF895F8B830002B7BD16B6AFB
:10A4600083B142482C62E8616E6A16F03BFF16F039
:10A4700029FD041E10DA3C481CF070F8204602B09A
:10A48000BDE8F08100F0BEF8FFF7C4FF6B6A002B57
:10A49000E7D14FF0FF34EEE700F07CFA041EEADB70
:10A4A0007378012B5AD1F379002B57D000266846D8
:10A4B00085F8C830ADF802308DF804608DF8006082
:10A4C00016F044FD041ED6DB802768468DF8007028
:10A4D00016F03CFD041ECEDB2549304616F0EEFE9C
:10A4E000041EC8DB2249384616F0E8FE041EC2DB13
:10A4F000204CDFF8848044451AD3002016F0AEFDCE
:10A50000041EB8DBD5F8C430802043F00103C5F841
:10A51000C43016F0A3FD041EADDBD5F8C43043F4FF
:10A520008033C5F8C430012385F8B8300024A2E791
:10A53000276A0026227FF3B29A4201D82434DAE750
:10A5400007EBC30257F83310107916F0B7FE013647
:10A550000028EFD09DE76FF077048CE76FF01504CB
:10A5600089E700BFEC2C00208C090020559E0200DA
:10A5700021A30200540C0020780C002030B51F4BA2
:10A580008BB005AA03F1100518685968144603C476
:10A590000833AB422246F7D11B78237010220021EA
:10A5A00001A825F054FF12220021154825F04FFF85
:10A5B000102101A823F0CBFD00281BDD0828B8BF1F
:10A5C0000820093801AB0E491A18002012F8013F83
:10A5D0000AAC04EB131403F00F0328336B4401306F
:10A5E00014F8144C13F8143C0C7008284B7001F14B
:10A5F0000201EBD102480BB030BD00BFF63F0500B1
:10A60000DF6900202DE9F04F724B93F800B087B05E
:10A61000BBF1000F03D0704807B0BDE8F08F6E4C5F
:10A6200000264FF0011AB0463546B14623783BB9B3
:10A630006A4B02349C42F3D1664A01231370EAE765
:10A640006378052B1BD8DFE803F08E03C38E1D391A
:10A65000402304A88DF810B0ADF812308DF814B076
:10A6600023F0A3FB40B1082304A8ADF8123023F077
:10A670009CFB08B1ADF812B0BDF81230E37123783D
:10A680001C44D3E7E378002BF9D1A3786BB108F130
:10A6900001085FFA88F8F2E76B689C4207D024351E
:10A6A0004F4B9D42F8D30020B6E74E4DF8E7AB681C
:10A6B000002BECD0414620469847E8E7002DF2D029
:10A6C00000222B7F9A42EED2296AA07801EBC201C8
:10A6D0000B79984201D00132F3E70127E07800F0CE
:10A6E00003008DF81400207994F805C040EA0C208E
:10A6F000ADF8120094F902000028FBB228DA07F145
:10A7000010004FF0010C0CFA00F010EA0A0F26D1ED
:10A7100043F080008DF8100004A8CDE902130192E7
:10A7200023F043FBDDE90121039BC0B99DF8102014
:10A73000A27012F0800F18BF10330A7118BFDBB27D
:10A740004FF0010214BF9A40BA404AEA020A96E763
:10A750000120B84010EA0A0F01D11846DAE70137A4
:10A76000102FBBD1B7E7032E1AD1FFF707FF07461B
:10A7700050B1FBF7F1FC024630B11028A8BF1022FF
:10A780003946A01C25F03BFE23786FF00201E21849
:10A79000091B04EB5303D14213D50136F6B26EE721
:10A7A000002EF1D1B9F1000F3FF47DAFA4EB090306
:10A7B00089F80230C3F3072389F8033089F804804D
:10A7C000EBE702F801BC13F8010902F8020DE2E719
:10A7D000A14654E7DE690020DC0B0020520C00206B
:10A7E000780C0020540C002010B5094B00211A46AB
:10A7F0001C78844205D15C681CB1482303FB01200E
:10A8000010BD0131042903F14803F1D10020F7E71D
:10A81000B82D00202DE9F34150F8303C10F8346C8D
:10A82000103304460AD1036950F8282C980736D50E
:10A83000D2B9590715D5002344F8303C54F8303CC0
:10A8400010330BD054E9097554F81C8C25F0DCFB4F
:10A8500000284FD02E48214625F049FB02B0BDE824
:10A86000F08143F00403236154F82C1C01AB304603
:10A870001FF0C2FD10B16FF01503DDE7019A54F827
:10A880002C3C134444F82C3C54F8283C9B1A44F8C4
:10A89000283C54F8243C134444F8243CCEE754F8B4
:10A8A0002C1C01AB304616F07FFC0028E3D1019D43
:10A8B00054F82C3C2B4444F82C3C54F8283C5B1BAB
:10A8C00044F8283C54F8243C2B4444F8243C002D04
:10A8D000B1D0304616F00CFDB5FBF0F303FB10557C
:10A8E000002DA8D154F8283C002BA4D0304616F0F7
:10A8F000A3FCA3E744F8200CA4F118001BF0B0FE61
:10A90000002DABD0424639463046A847A6E700BFE7
:10A91000582A002010B5EFF31184202383F3128806
:10A92000BFF36F8FFFF760FF50B14368103307D15B
:10A930006FF08B03436000F13401044825F0D7FA2F
:10A9400084F31188BFF36F8F10BD00BF582A002019
:10A95000F8B50E4C04252027EFF3118687F31288F3
:10A96000BFF36F8F6368103307D16FF08B03084814
:10A97000636004F1340125F0BAFA86F31188BFF35D
:10A980006F8F013D04F14804E6D1F8BDB82D0020D9
:10A99000582A002070B50A4C0A4E00253146204640
:10A9A00025F089FA0122A4F118001146013525F09D
:10A9B000FFF9042D04F14804F0D1002070BD00BF60
:10A9C000EC2D002015A802001FB507240294044CAA
:10A9D0000194BDF81840009422F08FFA04B010BD25
:10A9E0006708002010B5084C86B024788DF8174011
:10A9F000012402940DF117040194BDF82040009445
:10AA000022F07BFA06B010BD6E080020014B1878CA
:10AA1000704700BF6E08002000B589B064288DF82B
:10AA2000070019D80E4B18221870002102A825F033
:10AA30000EFD0C4B03930DF10703049302A90123B0
:10AA40000020ADF8143005F03DFE10F1800F08BF76
:10AA5000002009B05DF804FB6FF01500F9E700BFB6
:10AA60006E080020F81805002DE9F0410F4B1C6816
:10AA700005460E461746ACB14FF0FF324FF0FF339C
:10AA80000B481BF0F3FC63683246D3F80880294674
:10AA90003B462046C047044605481BF05FFD204664
:10AAA000BDE8F0816FF00104F9E700BFD82E002067
:10AAB0007809002000230360044B5A6812B9C3E9E7
:10AAC0000000704710605860704700BFDC2E002007
:10AAD000014B1860704700BFD82E002030B585B0FC
:10AAE00000230546CDE9023301904FF0FF330C48B7
:10AAF0004FF0FF321BF0BAFC0A4B1C684CB92846D9
:10AB000000F0D0F8044606481BF028FD204605B0AA
:10AB100030BD636820461B6801A998472468EDE7AB
:10AB200078090020DC2E00201FB5CDE90101039239
:10AB30004FF0FF330A484FF0FF321BF097FC094BF0
:10AB40001C682CB906481BF009FD204604B010BD56
:10AB5000636820461B6801A998472468F1E700BF95
:10AB600078090020DC2E0020024B0022C3E90022DD
:10AB7000704700BFDC2E0020024B0022C3E90022F8
:10AB8000FFF7F2BFE42E0020F8B51C4C1C4E054622
:10AB90000F46B44212D31B4E1B484FF0FF324FF00A
:10ABA000FF331BF063FC34687CB1286854F8181C30
:10ABB000183CFBF7BFFAD0B1A469F5E72168286813
:10ABC000FBF7B8FAB0B11834E3E700226F60AA616E
:10ABD000726805F118033AB9C6E9003300240A483F
:10ABE0001BF0BCFC2046F8BD13607360F6E76FF005
:10ABF0001004F4E76FF01004F4E700BFD81005006C
:10AC000098110500E42E0020780900202DE9F74373
:10AC100007460C4609B100230B601F4DDFF88090FA
:10AC200000264D450FD31D4B1D6885B355F8188C74
:10AC300001AA41463846183D1FF04DFC10B3D6B965
:10AC400014BB2E461EE0D5F8008001AA41463846C6
:10AC50001FF041FC50B116B954B92E4606E03168D8
:10AC6000002240461FF037FC0028F5D11835D8E700
:10AC7000019B2360F1E73168002240461FF02BFC66
:10AC80000028DDD1AD69D0E7019B2360D9E73046CC
:10AC900003B0BDE8F08300BFD8100500E42E00200B
:10ACA000981105002DE9F047DFF8B090DFF8B0A06B
:10ACB00080464FF000470026274C3D464C450DD3BB
:10ACC000DAF80040002C42D0183CB8F1000F25D132
:10ACD00022695ABBA469F5E72F46EDE7B8F1000FEA
:10ACE00003D122694AB91834E8E7206800224146B6
:10ACF0001FF0F1FB0028F4D1F5E76368BB4205DDE6
:10AD0000AF4209D09D42A8BF1D46ECE7EBD190476A
:10AD1000002E08BF0646E6E71D46E4E7206800224D
:10AD200041461FF0D8FB0028D2D1D3E76368BB426D
:10AD300005DDBD4209D09D42A8BF1D46CAE7C9D165
:10AD40009047002E08BF0646C4E71D46C2E7AF4243
:10AD5000C2D13046BDE8F087D81005009811050033
:10AD6000E42E002038B50C4D0C484FF0FF334FF067
:10AD7000FF321BF07BFB2B783BB9FFF7FDFE00F0A9
:10AD80006DF8044610B901232B70002403481BF012
:10AD9000E5FB204638BD00BFF1690020780900209E
:10ADA0002DE9F047048FDFF8B0A0013498B00646D3
:10ADB0008946A4B200F10807651EADB2B5F5004F93
:10ADC00047D04A2305AA294638461FF084FA04F5DD
:10ADD0007F543F34A4B28046214601230DF10B027B
:10ADE00038461FF078FAB8F1000F014610DC002851
:10ADF00010DC338FAB4209D132466B1E22F8383F4C
:10AE00004FF40041022338461FF033F92C46D3E7B4
:10AE1000002808DC294638461FF0F9F92146384653
:10AE20001FF0F5F9E5E708F160030DEB03080023D7
:10AE300008F84C3C5246CDF8009003AB05A80397A8
:10AE4000ADF810401FF07DFB0028DFD018B0BDE842
:10AE5000F0870020FAE700BFB1A504007FB5012309
:10AE6000694602200193FEF7F7FE044660BB02AA82
:10AE700001A902201FF099FA044610B110F10C0F3D
:10AE800022D10399B1F5803F23D2009A0023946820
:10AE90001846084484421AD30133082BF9D10E4DC9
:10AEA000A982EB825368AB602846D368EB631FF03E
:10AEB00017FC044640B9094E6E602846FFF7FAFDBC
:10AEC00028466E60FFF704FE204604B070BD9BB2BA
:10AED000E5E76FF02004F7E7EC2E002028040020BF
:10AEE00030BFFFF7FDBF00BF2DE9F0410B4EDFF88B
:10AEF000348006EB0807CC1B05463246084920463D
:10AF000025F07DFAA01942460021083C25F09FFA61
:10AF10006C6707F10800BDE8F08100BF0000000089
:10AF20009811050008000000054B9A699B689A4239
:10AF30001FBF044A536843F080535360704700BFFB
:10AF40006068002000ED00E0134B9A6A12F0007F69
:10AF50009A6A14BF1E201D2012F0807F9A6A18BFC3
:10AF60001F2012F4002F9A6A18BF212012F4802F9C
:10AF70009A6A18BF222012F4003F9A6A18BF232051
:10AF800012F4803F9A6A6FEA02426FEA12429A62B2
:10AF900018BF2420704700BF00ED00E010B5194B2A
:10AFA0000246986A9C6A10F4805F14BF172016202E
:10AFB00014F4006F9C6A18BF1820A40509D5986B7B
:10AFC000986A000404D51AB19A6A22F400429A627F
:10AFD00019200C4B9A6A12F4806F9A6A18BF1A20D3
:10AFE000D2050CD49B6A13F4005F18BF1C20054ADD
:10AFF000936A43F47F43936200230B7010BD1B20C0
:10B00000F5E700BF00ED00E010B51C4B0246986A62
:10B010009C6A10F0100F14BF1120102014F0080FBC
:10B020009C6A18BF1220A40709D5586B986A0006BD
:10B0300004D51AB19A6A22F080029A6213200F4B4B
:10B040009A6A12F0010F9A6A18BF142012F0200FAA
:10B050009A6A18BF1520D40658BF9B6A074B9A6A94
:10B06000920642BF5A6A22F400525A629A6A42F029
:10B07000FF029A6200230B7010BD00BF00ED00E0DC
:10B0800070B5444B5B689CB00646C3F308030025CB
:10B0900085F31188BFF36F8F02F07F40B0F17F4FCF
:10B0A00011D102F00C0008280DD010074CBF0E463D
:10B0B00001250022033B8DF80720032B05D8DFE88C
:10B0C00003F01E5C60592E46F3E700249DF807301C
:10B0D0009BB96822314602A825F091F9099B002D01
:10B0E00053D0C3F3080222B96FEA53236FEA432314
:10B0F000099302A920461FF028FB1CB070BD254B08
:10B10000DA6A9107E1D4DA6A002ADEDBDA6A5200F1
:10B11000DBD55A69B16942F480725A61BFF34F8F2F
:10B12000BFF36F8F5A6931F8021C22F480725A61A2
:10B13000BFF34F8FBFF36F8F4DF60272914209D06C
:10B140009A6AD2B242B10DF107010120FFF75CFF0C
:10B150000446BBE73468B9E79A6A12F47F4F05D01A
:10B160000DF107010120FFF719FFF1E79B6AB3F525
:10B17000803FAAD3FFF7E8FEEAE70DF107010020C0
:10B18000E4E70DF107010020EDE723F4FF7323F05E
:10B190000103ADE700ED00E0044B5A6942F01002F4
:10B1A0005A615A6922F008025A61704700ED00E0C6
:10B1B000EFF30880EFF3098101B57246FFF760FFF6
:10B1C00001BD00BF18F00EF9202080F31188084857
:10B1D0004FF40061401880F30988EFF314800221D6
:10B1E000084380F31488BFF36F8F00F0CDF80000A0
:10B1F000808B0020BFF34F8F0549064BCA6802F4CD
:10B20000E0621343CB60BFF34F8F00BFFDE700BF89
:10B2100000ED00E00400FA05084B9B6883420BD167
:10B22000EFF3058343B1064B5A6842F080525A60EF
:10B230005A6A22F400425A621CF008B86068002082
:10B2400000ED00E020498A6882F8C1E04FF030004C
:10B250001044EFF3098C80E8F01F1EF0100F03D1AB
:10B2600002F1800080EC108A202080F31288BFF366
:10B270006F8F164F4FF000668A698A603E60506F8C
:10B28000134C206092F9C1E0906F0023936780F324
:10B2900011881EF0100F03D00023E1EE103A03E0F6
:10B2A00002F1800090EC108AEFF3148323F0040382
:10B2B00083F31488BFF36F8F02F1300090E8F01F22
:10B2C0008CF30988704700006068002004ED00E0FE
:10B2D0002C2F00201EF0040F0CBFEFF30880EFF3BB
:10B2E0000980816911F8021C0229FFD001B572465C
:10B2F0001FF031FA01BD00BF40B2002807DB044A4D
:10B300004109012300F01F00834042F821307047BB
:10B3100000E100E040B200280CDB4309064900F0E0
:10B320001F0020330122824041F82320BFF34F8FBA
:10B33000BFF36F8F704700BF00E100E0054B42098B
:10B3400000F01F0053F82220012303FA00F0104000
:10B35000704700BF00E100E040B20028A8BF00F144
:10B36000604001F10101B8BF064B4FEA4111ACBF8B
:10B3700000F5614000F00F00C9B2B4BF195480F865
:10B380000013704714ED00E0144A08B5144B22F086
:10B390007F029A60BFF34F8FBFF36F8FD3F888207F
:10B3A00022F47002C3F88820D3F8882042F4A00267
:10B3B000C3F888204FF04042C3F83422BFF34F8FC8
:10B3C000BFF36F8F0023E1EE103A1AF095FE1CF0E8
:10B3D00075F800F07BF81AF0CFFE00BF00600200A5
:10B3E00000ED00E042F8203C009B42F81C3C019B31
:10B3F00042F8183C0A49029B42F8143C4FF0807313
:10B4000042F8043C21F00101002342F8081C203AD4
:10B4100083674FF47D430265C0F8C030704700BFBA
:10B42000B1950200104B9B6883421AD1EFF305805F
:10B43000B8B9EFF31181202282F31288BFF36F8F26
:10B440001A7B22F002021A73EFF3148323F0040331
:10B4500083F31488BFF36F8F81F31188BFF36F8F6D
:10B4600070476FF0150070476068002000B50E4609
:10B4700015460023E1EE103AEFF3148323F00403A2
:10B4800083F31488BFF36F8FBFF36F8F084B426F46
:10B490009860084B1A602C4686F309880020064BFA
:10B4A00098472046002100220023044C204700BF7B
:10B4B000606800202C2F002075A70400B1950200C1
:10B4C000014B10221A61704700ED00E00448002390
:10B4D0002021C2180133302B82F80013F9D17047B4
:10B4E00000E100E008B5EFF30583064A103B02EBEC
:10B4F000C30152F8330049688847BDE80840FFF7A8
:10B5000013BD00BF600E0500024B034A0348012132
:10B5100000F066B800000420000000204819050073
:10B52000084AC2F898000B6823F01F03034343F056
:10B530001003C2F89C308B6843F00103C2F8A030BE
:10B54000704700BF00ED00E02DE9F043DFF86080B8
:10B5500085B00E461F4604464FF00009B14523DA78
:10B560006068D8B13FB1411E08421BD11F2819D9CC
:10B570002368194216D1236801931FF01EF9A368AE
:10B5800003430393D8F89050C5F30725D0B2013D8B
:10B59000A84207D801A9FFF7C3FF421C09F101091E
:10B5A0000C34DBE76FF01502104605B0BDE8F08300
:10B5B00000ED00E0044B0522C3F89420BFF34F8F49
:10B5C000BFF36F8F704700BF00ED00E0BFF35F8FE8
:10B5D000024B0022C3F89420704700BF00ED00E04A
:10B5E00010B5034C01232278FFF7AEFF207010BD89
:10B5F000F26900202DE9F043534B544CD3F89030BE
:10B600002568C3F307239D4285B000F29A80FFF7B7
:10B61000DDFF00200C2685421AD14D4C4D4F257080
:10B620006846FEF7C1FADFF82081DFF82C91064664
:10B630000025AE4213D1237843490020D1F8902051
:10B64000C2F30722934276DBFFF7B4FF002042E00B
:10B65000616806FB0011FFF763FF0130DBE700982C
:10B6600000EB05114FEA051CCB683B40B3F5000F1A
:10B6700048D00AD8B3F5001F30D0B3F5800F36D0CC
:10B68000B3F5801F10D00135D3E7B3F1807F42D0EE
:10B69000B3F1007FF7D150F80C3088684A681FF08A
:10B6A0008CF840F4802009E050F80C3088684A6833
:10B6B0001FF083F840F0885040F43020CDE901239A
:10B6C0000390D8F890302078C3F30723013B9842C9
:10B6D0002AD96FF0150005B0BDE8F08350F80C30A2
:10B6E00088684A681FF069F840EA0900E6E750F800
:10B6F0000C3088684A681FF060F840F0007040F431
:10B700000030DBE750F80C3088684A681FF055F8C5
:10B7100040F08270D2E750F80C3088684A681FF019
:10B720004CF840F08870C9E701A9FFF7F9FE2378CB
:10B7300001332370A7E7C1F89830C1F8A0000133A6
:10B740007CE74FF0FF30C6E700ED00E0541905003C
:10B75000F26900200000F0FF0000081108B506495A
:10B76000064821F00701C1F1005202F580221EF0C7
:10B770003BF8002008BD00BFCBB20020302F0020D6
:10B7800003484FF0FF324FF0FF331AF06FBE00BF97
:10B790003C04002001481AF0E1BE00BF3C04002038
:10B7A00038B50546FFF7ECFF08482A4608211DF08A
:10B7B000B3FF044628B925B125F0E4F9044B0C2267
:10B7C0001A50FFF7E7FF204638BD00BF302F00209A
:10B7D0000C00000010B50446FFF7D2FF21460348D5
:10B7E0001DF062FFBDE81040FFF7D4BF302F0020EE
:10B7F00070B5A0FB01543CB92846FFF7D1FF0646BF
:10B8000040B90026304670BD25F0BCF9044B0C222F
:10B810001A50F6E72A46214624F019FEF2E700BF47
:10B820000C00000070B54169867A0B4D044659B191
:10B83000437ADB0706D42C2303FB06535B6A1B68A1
:10B840009B689847002363612C20214606FB00502B
:10B85000BDE8704024F09EBAA80A0020024B2C22BA
:10B8600002FB0030704700BFA80A0020827A064B16
:10B870002C2101FB02339A6A1B7F1B33801A23F0B1
:10B880000303B0FBF3F07047A80A002038B5074B5C
:10B89000827A2C2404FB02335B6AD3E901240C6016
:10B8A0001568FFF7E3FF04FB005038BDA80A00202D
:10B8B0002DE9F04385B005466846039190461C4645
:10B8C00024F0D3FCDDE90067EFF31189202383F333
:10B8D0001288BFF36F8F6B8B002B41D02A8B9A425B
:10B8E00025D90022002328461AF088FE0446F0B12C
:10B8F00089F31188BFF36F8F039B002B41D0324631
:10B900003B46684624F0D5FCA27A264B2C2101FB4D
:10B91000023320465B6A1B6803A91D68DDE900232A
:10B92000A847606170BB2046FFF77CFF24E0698B6D
:10B930004B1E6B8389F31188BFF36F8F2B7F2A8B8C
:10B94000AC6A1B3323F00303521A02FB0344154B6A
:10B95000154AEB1A9B105343A3722B7FE372CBE77C
:10B9600089F31188BFF36F8F2346424628461AF0A9
:10B9700045FE04460028BFD10024204605B0BDE89E
:10B98000F0836361012300252381039B6382E27AB4
:10B990006560294604F1180024F059FD6369258289
:10B9A000E360EAE7A80A0020A38B2EBA70B50C4C1E
:10B9B0002C2500B970BD037A4668013BDBB20372E7
:10B9C000002BF7D1C3604360837A05FB03431B6AF6
:10B9D00013B198473046ECE7FFF724FFFAE700BFC2
:10B9E000A80A0020044A0123C2F840354FF08042E3
:10B9F0000020C2F87835704700E0014020B1034BC9
:10BA0000800143F001031847704700BF1012050082
:10BA100008B5044823F0D9FF00280CBF6FF01200CE
:10BA2000002008BD100D050010B5034605488268CA
:10BA300014688AB21946A0470028B4BF6FF004000A
:10BA4000002010BD100D050010B50C460146084839
:10BA50001EF004FD50B1022C08D150F8083C2BB167
:10BA60001B691BB1BDE810400068184710BD00BF3E
:10BA7000542F0020F8B590F90030002B04460D46F5
:10BA8000174602DB6FF01500F8BD038823F0E003D2
:10BA90009BB240F201629342F4D146880179124888
:10BAA000360A1EF0CDFC0028ECD0212E04D0222E28
:10BAB0000FD06FF08500E7E70368E1885B685B689B
:10BAC00013F8092F914294BF29602A603B6000203F
:10BAD000DAE7E38850F80C2C9A4294BF2A602B6076
